{
  "contractName": "Pendu",
  "abi": [
    {
      "anonymous": false,
      "inputs": [
        {
          "indexed": false,
          "internalType": "uint256",
          "name": "proposedNumber",
          "type": "uint256"
        }
      ],
      "name": "NumberProposed",
      "type": "event"
    },
    {
      "anonymous": false,
      "inputs": [
        {
          "indexed": true,
          "internalType": "address",
          "name": "previousOwner",
          "type": "address"
        },
        {
          "indexed": true,
          "internalType": "address",
          "name": "newOwner",
          "type": "address"
        }
      ],
      "name": "OwnershipTransferred",
      "type": "event"
    },
    {
      "anonymous": false,
      "inputs": [
        {
          "indexed": false,
          "internalType": "address",
          "name": "player",
          "type": "address"
        }
      ],
      "name": "PlayerAdded",
      "type": "event"
    },
    {
      "anonymous": false,
      "inputs": [
        {
          "indexed": false,
          "internalType": "enum Pendu.State",
          "name": "state",
          "type": "uint8"
        }
      ],
      "name": "StateChanged",
      "type": "event"
    },
    {
      "anonymous": false,
      "inputs": [
        {
          "indexed": false,
          "internalType": "uint256",
          "name": "tax",
          "type": "uint256"
        }
      ],
      "name": "TaxChanged",
      "type": "event"
    },
    {
      "inputs": [],
      "name": "CurrentState",
      "outputs": [
        {
          "internalType": "enum Pendu.State",
          "name": "",
          "type": "uint8"
        }
      ],
      "stateMutability": "view",
      "type": "function",
      "constant": true
    },
    {
      "inputs": [],
      "name": "owner",
      "outputs": [
        {
          "internalType": "address",
          "name": "",
          "type": "address"
        }
      ],
      "stateMutability": "view",
      "type": "function",
      "constant": true
    },
    {
      "inputs": [],
      "name": "renounceOwnership",
      "outputs": [],
      "stateMutability": "nonpayable",
      "type": "function"
    },
    {
      "inputs": [
        {
          "internalType": "address",
          "name": "newOwner",
          "type": "address"
        }
      ],
      "name": "transferOwnership",
      "outputs": [],
      "stateMutability": "nonpayable",
      "type": "function"
    },
    {
      "inputs": [],
      "name": "showCurrentState",
      "outputs": [
        {
          "internalType": "enum Pendu.State",
          "name": "",
          "type": "uint8"
        }
      ],
      "stateMutability": "view",
      "type": "function",
      "constant": true
    },
    {
      "inputs": [],
      "name": "showTax",
      "outputs": [
        {
          "internalType": "uint256",
          "name": "",
          "type": "uint256"
        }
      ],
      "stateMutability": "view",
      "type": "function",
      "constant": true
    },
    {
      "inputs": [],
      "name": "showPot",
      "outputs": [
        {
          "internalType": "uint256",
          "name": "",
          "type": "uint256"
        }
      ],
      "stateMutability": "view",
      "type": "function",
      "constant": true
    },
    {
      "inputs": [],
      "name": "showNumberToGuess",
      "outputs": [
        {
          "internalType": "uint256",
          "name": "",
          "type": "uint256"
        }
      ],
      "stateMutability": "view",
      "type": "function",
      "constant": true
    },
    {
      "inputs": [],
      "name": "showPlayers",
      "outputs": [
        {
          "internalType": "address[]",
          "name": "",
          "type": "address[]"
        }
      ],
      "stateMutability": "view",
      "type": "function",
      "constant": true
    },
    {
      "inputs": [],
      "name": "showPlayed",
      "outputs": [
        {
          "internalType": "address[]",
          "name": "",
          "type": "address[]"
        }
      ],
      "stateMutability": "view",
      "type": "function",
      "constant": true
    },
    {
      "inputs": [],
      "name": "showProposedNumbers",
      "outputs": [
        {
          "internalType": "uint256[]",
          "name": "",
          "type": "uint256[]"
        }
      ],
      "stateMutability": "view",
      "type": "function",
      "constant": true
    },
    {
      "inputs": [],
      "name": "showHint",
      "outputs": [
        {
          "internalType": "string",
          "name": "",
          "type": "string"
        }
      ],
      "stateMutability": "view",
      "type": "function",
      "constant": true
    },
    {
      "inputs": [],
      "name": "showWinner",
      "outputs": [
        {
          "internalType": "address",
          "name": "",
          "type": "address"
        }
      ],
      "stateMutability": "view",
      "type": "function",
      "constant": true
    },
    {
      "inputs": [
        {
          "internalType": "uint256",
          "name": "_tax",
          "type": "uint256"
        }
      ],
      "name": "setTax",
      "outputs": [],
      "stateMutability": "nonpayable",
      "type": "function"
    },
    {
      "inputs": [
        {
          "internalType": "address",
          "name": "_player",
          "type": "address"
        }
      ],
      "name": "addToPlayers",
      "outputs": [],
      "stateMutability": "nonpayable",
      "type": "function"
    },
    {
      "inputs": [
        {
          "internalType": "uint256",
          "name": "_numberToGuess",
          "type": "uint256"
        }
      ],
      "name": "setNumberToGuess",
      "outputs": [],
      "stateMutability": "nonpayable",
      "type": "function"
    },
    {
      "inputs": [],
      "name": "startGame",
      "outputs": [],
      "stateMutability": "nonpayable",
      "type": "function"
    },
    {
      "inputs": [
        {
          "internalType": "uint256",
          "name": "proposition",
          "type": "uint256"
        }
      ],
      "name": "proposeNumber",
      "outputs": [],
      "stateMutability": "payable",
      "type": "function",
      "payable": true
    },
    {
      "inputs": [],
      "name": "win",
      "outputs": [],
      "stateMutability": "nonpayable",
      "type": "function"
    },
    {
      "inputs": [],
      "name": "resetGame",
      "outputs": [],
      "stateMutability": "nonpayable",
      "type": "function"
    }
  ],
  "bytecode": "0x608060405260008060146101000a81548160ff021916908360028111156200002c576200002b62000131565b5b02179055503480156200003e57600080fd5b506200005f620000536200006560201b60201c565b6200006d60201b60201c565b62000160565b600033905090565b60008060009054906101000a900473ffffffffffffffffffffffffffffffffffffffff169050816000806101000a81548173ffffffffffffffffffffffffffffffffffffffff021916908373ffffffffffffffffffffffffffffffffffffffff1602179055508173ffffffffffffffffffffffffffffffffffffffff168173ffffffffffffffffffffffffffffffffffffffff167f8be0079c531659141344cd1fd0a4f28419497f9722a3daafe3b4186f6b6457e060405160405180910390a35050565b7f4e487b7100000000000000000000000000000000000000000000000000000000600052602160045260246000fd5b61282a80620001706000396000f3fe60806040526004361061011f5760003560e01c80639553a16e116100a0578063bb47221911610064578063bb4722191461037b578063d65ab5f214610392578063eb179238146103a9578063f2fde38b146103d4578063f8597160146103fd5761011f565b80639553a16e146102a65780639814e6fa146102cf578063a7df8494146102fa578063b7c0317014610325578063b7e03264146103505761011f565b8063566bc5a0116100e7578063566bc5a0146101e3578063715018a61461020e5780637cb2c7a91461022557806385ccaf60146102505780638da5cb5b1461027b5761011f565b806304e544cf146101245780632e5bb6ff1461014f5780633fbc420914610178578063473ca96c146101a357806348977d44146101ba575b600080fd5b34801561013057600080fd5b50610139610419565b6040516101469190611f7c565b60405180910390f35b34801561015b57600080fd5b5061017660048036038101906101719190611bb9565b61042f565b005b34801561018457600080fd5b5061018d610562565b60405161019a9190611f5a565b60405180910390f35b3480156101af57600080fd5b506101b86105ba565b005b3480156101c657600080fd5b506101e160048036038101906101dc9190611b8c565b610712565b005b3480156101ef57600080fd5b506101f861098c565b6040516102059190611f97565b60405180910390f35b34801561021a57600080fd5b50610223610a1e565b005b34801561023157600080fd5b5061023a610aa6565b6040516102479190612159565b60405180910390f35b34801561025c57600080fd5b50610265610ab0565b6040516102729190612159565b60405180910390f35b34801561028757600080fd5b50610290610b2f565b60405161029d9190611f1d565b60405180910390f35b3480156102b257600080fd5b506102cd60048036038101906102c89190611bb9565b610b58565b005b3480156102db57600080fd5b506102e4610c54565b6040516102f19190611f38565b60405180910390f35b34801561030657600080fd5b5061030f610ce2565b60405161031c9190612159565b60405180910390f35b34801561033157600080fd5b5061033a610cec565b6040516103479190611f7c565b60405180910390f35b34801561035c57600080fd5b50610365610cff565b6040516103729190611f1d565b60405180910390f35b34801561038757600080fd5b50610390610d9e565b005b34801561039e57600080fd5b506103a76110fe565b005b3480156103b557600080fd5b506103be611335565b6040516103cb9190611f38565b60405180910390f35b3480156103e057600080fd5b506103fb60048036038101906103f69190611b8c565b6113c3565b005b61041760048036038101906104129190611bb9565b6114bb565b005b60008060149054906101000a900460ff16905090565b6104376119b1565b73ffffffffffffffffffffffffffffffffffffffff16610455610b2f565b73ffffffffffffffffffffffffffffffffffffffff16146104ab576040517f08c379a00000000000000000000000000000000000000000000000000000000081526004016104a2906120b9565b60405180910390fd5b600060028111156104bf576104be6123f0565b5b600060149054906101000a900460ff1660028111156104e1576104e06123f0565b5b14610521576040517f08c379a000000000000000000000000000000000000000000000000000000000815260040161051890611fd9565b60405180910390fd5b806002819055507f06cb183e2abbb8ffc414e0877616e04dfbd8f97c654d491fb0e9b3d91a4065ae816040516105579190612159565b60405180910390a150565b606060068054806020026020016040519081016040528092919081815260200182805480156105b057602002820191906000526020600020905b81548152602001906001019080831161059c575b5050505050905090565b6002808111156105cd576105cc6123f0565b5b600060149054906101000a900460ff1660028111156105ef576105ee6123f0565b5b1461062f576040517f08c379a0000000000000000000000000000000000000000000000000000000008152600401610626906120f9565b60405180910390fd5b3373ffffffffffffffffffffffffffffffffffffffff16600460009054906101000a900473ffffffffffffffffffffffffffffffffffffffff1673ffffffffffffffffffffffffffffffffffffffff16146106bf576040517f08c379a00000000000000000000000000000000000000000000000000000000081526004016106b690612099565b60405180910390fd5b3373ffffffffffffffffffffffffffffffffffffffff166108fc6003549081150290604051600060405180830381858888f19350505050158015610707573d6000803e3d6000fd5b506000600381905550565b61071a6119b1565b73ffffffffffffffffffffffffffffffffffffffff16610738610b2f565b73ffffffffffffffffffffffffffffffffffffffff161461078e576040517f08c379a0000000000000000000000000000000000000000000000000000000008152600401610785906120b9565b60405180910390fd5b60001515600a60008373ffffffffffffffffffffffffffffffffffffffff1673ffffffffffffffffffffffffffffffffffffffff16815260200190815260200160002060009054906101000a900460ff16151514610821576040517f08c379a000000000000000000000000000000000000000000000000000000000815260040161081890611ff9565b60405180910390fd5b60006002811115610835576108346123f0565b5b600060149054906101000a900460ff166002811115610857576108566123f0565b5b14610897576040517f08c379a000000000000000000000000000000000000000000000000000000000815260040161088e90611fd9565b60405180910390fd5b6001600a60008373ffffffffffffffffffffffffffffffffffffffff1673ffffffffffffffffffffffffffffffffffffffff16815260200190815260200160002060006101000a81548160ff0219169083151502179055506007819080600181540180825580915050600190039060005260206000200160009091909190916101000a81548173ffffffffffffffffffffffffffffffffffffffff021916908373ffffffffffffffffffffffffffffffffffffffff1602179055507ff2ae205522024c14e5a7a26ba6d1fb1252dc8e161b5abc79ed5795fd3c5b9261816040516109819190611f1d565b60405180910390a150565b60606005805461099b90612346565b80601f01602080910402602001604051908101604052809291908181526020018280546109c790612346565b8015610a145780601f106109e957610100808354040283529160200191610a14565b820191906000526020600020905b8154815290600101906020018083116109f757829003601f168201915b5050505050905090565b610a266119b1565b73ffffffffffffffffffffffffffffffffffffffff16610a44610b2f565b73ffffffffffffffffffffffffffffffffffffffff1614610a9a576040517f08c379a0000000000000000000000000000000000000000000000000000000008152600401610a91906120b9565b60405180910390fd5b610aa460006119b9565b565b6000600354905090565b6000600280811115610ac557610ac46123f0565b5b600060149054906101000a900460ff166002811115610ae757610ae66123f0565b5b14610b27576040517f08c379a0000000000000000000000000000000000000000000000000000000008152600401610b1e90612019565b60405180910390fd5b600154905090565b60008060009054906101000a900473ffffffffffffffffffffffffffffffffffffffff16905090565b610b606119b1565b73ffffffffffffffffffffffffffffffffffffffff16610b7e610b2f565b73ffffffffffffffffffffffffffffffffffffffff1614610bd4576040517f08c379a0000000000000000000000000000000000000000000000000000000008152600401610bcb906120b9565b60405180910390fd5b60006002811115610be857610be76123f0565b5b600060149054906101000a900460ff166002811115610c0a57610c096123f0565b5b14610c4a576040517f08c379a0000000000000000000000000000000000000000000000000000000008152600401610c4190611fd9565b60405180910390fd5b8060018190555050565b60606007805480602002602001604051908101604052809291908181526020018280548015610cd857602002820191906000526020600020905b8160009054906101000a900473ffffffffffffffffffffffffffffffffffffffff1673ffffffffffffffffffffffffffffffffffffffff1681526020019060010190808311610c8e575b5050505050905090565b6000600254905090565b600060149054906101000a900460ff1681565b6000600280811115610d1457610d136123f0565b5b600060149054906101000a900460ff166002811115610d3657610d356123f0565b5b14610d76576040517f08c379a0000000000000000000000000000000000000000000000000000000008152600401610d6d90612019565b60405180910390fd5b600460009054906101000a900473ffffffffffffffffffffffffffffffffffffffff16905090565b610da66119b1565b73ffffffffffffffffffffffffffffffffffffffff16610dc4610b2f565b73ffffffffffffffffffffffffffffffffffffffff1614610e1a576040517f08c379a0000000000000000000000000000000000000000000000000000000008152600401610e11906120b9565b60405180910390fd5b600280811115610e2d57610e2c6123f0565b5b600060149054906101000a900460ff166002811115610e4f57610e4e6123f0565b5b14610e8f576040517f08c379a0000000000000000000000000000000000000000000000000000000008152600401610e8690612019565b60405180910390fd5b60008060146101000a81548160ff02191690836002811115610eb457610eb36123f0565b5b0217905550600160009055600260009055600360009055600460006101000a81549073ffffffffffffffffffffffffffffffffffffffff021916905560005b600680549050811015610f5d5760006009600060068481548110610f1a57610f1961244e565b5b9060005260206000200154815260200190815260200160002060006101000a81548160ff0219169083151502179055508080610f5590612378565b915050610ef3565b5060005b600780549050811015611017576000600a600060078481548110610f8857610f8761244e565b5b9060005260206000200160009054906101000a900473ffffffffffffffffffffffffffffffffffffffff1673ffffffffffffffffffffffffffffffffffffffff1673ffffffffffffffffffffffffffffffffffffffff16815260200190815260200160002060006101000a81548160ff021916908315150217905550808061100f90612378565b915050610f61565b5060005b6008805490508110156110d1576000600b6000600884815481106110425761104161244e565b5b9060005260206000200160009054906101000a900473ffffffffffffffffffffffffffffffffffffffff1673ffffffffffffffffffffffffffffffffffffffff1673ffffffffffffffffffffffffffffffffffffffff16815260200190815260200160002060006101000a81548160ff02191690831515021790555080806110c990612378565b91505061101b565b50600660006110e09190611a7d565b600760006110ee9190611a9e565b600860006110fc9190611a9e565b565b6111066119b1565b73ffffffffffffffffffffffffffffffffffffffff16611124610b2f565b73ffffffffffffffffffffffffffffffffffffffff161461117a576040517f08c379a0000000000000000000000000000000000000000000000000000000008152600401611171906120b9565b60405180910390fd5b6000600281111561118e5761118d6123f0565b5b600060149054906101000a900460ff1660028111156111b0576111af6123f0565b5b146111f0576040517f08c379a00000000000000000000000000000000000000000000000000000000081526004016111e790611fd9565b60405180910390fd5b600160078054905011611238576040517f08c379a000000000000000000000000000000000000000000000000000000000815260040161122f90612059565b60405180910390fd5b60006002541161127d576040517f08c379a000000000000000000000000000000000000000000000000000000000815260040161127490611fb9565b60405180910390fd5b6000600154116112c2576040517f08c379a00000000000000000000000000000000000000000000000000000000081526004016112b990612139565b60405180910390fd5b6001600060146101000a81548160ff021916908360028111156112e8576112e76123f0565b5b02179055507f551dc40198cc79684bb69e4931dba4ac16e4598792ee1c0a5000aeea366d7bb6600060149054906101000a900460ff1660405161132b9190611f7c565b60405180910390a1565b606060088054806020026020016040519081016040528092919081815260200182805480156113b957602002820191906000526020600020905b8160009054906101000a900473ffffffffffffffffffffffffffffffffffffffff1673ffffffffffffffffffffffffffffffffffffffff168152602001906001019080831161136f575b5050505050905090565b6113cb6119b1565b73ffffffffffffffffffffffffffffffffffffffff166113e9610b2f565b73ffffffffffffffffffffffffffffffffffffffff161461143f576040517f08c379a0000000000000000000000000000000000000000000000000000000008152600401611436906120b9565b60405180910390fd5b600073ffffffffffffffffffffffffffffffffffffffff168173ffffffffffffffffffffffffffffffffffffffff1614156114af576040517f08c379a00000000000000000000000000000000000000000000000000000000081526004016114a690612039565b60405180910390fd5b6114b8816119b9565b50565b600a60003373ffffffffffffffffffffffffffffffffffffffff1673ffffffffffffffffffffffffffffffffffffffff16815260200190815260200160002060009054906101000a900460ff16611547576040517f08c379a000000000000000000000000000000000000000000000000000000000815260040161153e90612119565b60405180910390fd5b600015156009600083815260200190815260200160002060009054906101000a900460ff161515146115ae576040517f08c379a00000000000000000000000000000000000000000000000000000000081526004016115a5906120d9565b60405180910390fd5b600160028111156115c2576115c16123f0565b5b600060149054906101000a900460ff1660028111156115e4576115e36123f0565b5b14611624576040517f08c379a000000000000000000000000000000000000000000000000000000000815260040161161b90612079565b60405180910390fd5b6001548114156116e5576002600060146101000a81548160ff02191690836002811115611654576116536123f0565b5b02179055507f551dc40198cc79684bb69e4931dba4ac16e4598792ee1c0a5000aeea366d7bb6600060149054906101000a900460ff166040516116979190611f7c565b60405180910390a133600460006101000a81548173ffffffffffffffffffffffffffffffffffffffff021916908373ffffffffffffffffffffffffffffffffffffffff160217905550611987565b34600360008282546116f79190612202565b9250508190555060028060008282546117109190612258565b925050819055507f06cb183e2abbb8ffc414e0877616e04dfbd8f97c654d491fb0e9b3d91a4065ae6002546040516117489190612159565b60405180910390a160001515600b60003373ffffffffffffffffffffffffffffffffffffffff1673ffffffffffffffffffffffffffffffffffffffff16815260200190815260200160002060009054906101000a900460ff1615151415611865576001600b60003373ffffffffffffffffffffffffffffffffffffffff1673ffffffffffffffffffffffffffffffffffffffff16815260200190815260200160002060006101000a81548160ff0219169083151502179055506008339080600181540180825580915050600190039060005260206000200160009091909190916101000a81548173ffffffffffffffffffffffffffffffffffffffff021916908373ffffffffffffffffffffffffffffffffffffffff1602179055505b600681908060018154018082558091505060019003906000526020600020016000909190919091505560016009600083815260200190815260200160002060006101000a81548160ff0219169083151502179055507f12b9167f4ce77098d576a1d5e7e6841e046d5fca7a5e8cf62519fa6c00ef8327816040516118e99190612159565b60405180910390a16001548110611935576040518060400160405280600b81526020017f4327657374206d6f696e7300000000000000000000000000000000000000000081525061196c565b6040518060400160405280600a81526020017f432765737420706c7573000000000000000000000000000000000000000000008152505b60059080519060200190611981929190611abf565b506119ae565b60405180602001604052806000815250600590805190602001906119ac929190611abf565b505b50565b600033905090565b60008060009054906101000a900473ffffffffffffffffffffffffffffffffffffffff169050816000806101000a81548173ffffffffffffffffffffffffffffffffffffffff021916908373ffffffffffffffffffffffffffffffffffffffff1602179055508173ffffffffffffffffffffffffffffffffffffffff168173ffffffffffffffffffffffffffffffffffffffff167f8be0079c531659141344cd1fd0a4f28419497f9722a3daafe3b4186f6b6457e060405160405180910390a35050565b5080546000825590600052602060002090810190611a9b9190611b45565b50565b5080546000825590600052602060002090810190611abc9190611b45565b50565b828054611acb90612346565b90600052602060002090601f016020900481019282611aed5760008555611b34565b82601f10611b0657805160ff1916838001178555611b34565b82800160010185558215611b34579182015b82811115611b33578251825591602001919060010190611b18565b5b509050611b419190611b45565b5090565b5b80821115611b5e576000816000905550600101611b46565b5090565b600081359050611b71816127c6565b92915050565b600081359050611b86816127dd565b92915050565b600060208284031215611ba257611ba161247d565b5b6000611bb084828501611b62565b91505092915050565b600060208284031215611bcf57611bce61247d565b5b6000611bdd84828501611b77565b91505092915050565b6000611bf28383611c16565b60208301905092915050565b6000611c0a8383611eff565b60208301905092915050565b611c1f816122b2565b82525050565b611c2e816122b2565b82525050565b6000611c3f82612194565b611c4981856121cf565b9350611c5483612174565b8060005b83811015611c85578151611c6c8882611be6565b9750611c77836121b5565b925050600181019050611c58565b5085935050505092915050565b6000611c9d8261219f565b611ca781856121e0565b9350611cb283612184565b8060005b83811015611ce3578151611cca8882611bfe565b9750611cd5836121c2565b925050600181019050611cb6565b5085935050505092915050565b611cf981612301565b82525050565b6000611d0a826121aa565b611d1481856121f1565b9350611d24818560208601612313565b611d2d81612482565b840191505092915050565b6000611d456026836121f1565b9150611d5082612493565b604082019050919050565b6000611d68601c836121f1565b9150611d73826124e2565b602082019050919050565b6000611d8b6025836121f1565b9150611d968261250b565b604082019050919050565b6000611dae6024836121f1565b9150611db98261255a565b604082019050919050565b6000611dd16026836121f1565b9150611ddc826125a9565b604082019050919050565b6000611df46037836121f1565b9150611dff826125f8565b604082019050919050565b6000611e17601c836121f1565b9150611e2282612647565b602082019050919050565b6000611e3a601b836121f1565b9150611e4582612670565b602082019050919050565b6000611e5d6020836121f1565b9150611e6882612699565b602082019050919050565b6000611e806021836121f1565b9150611e8b826126c2565b604082019050919050565b6000611ea3601d836121f1565b9150611eae82612711565b602082019050919050565b6000611ec6601a836121f1565b9150611ed18261273a565b602082019050919050565b6000611ee96029836121f1565b9150611ef482612763565b604082019050919050565b611f08816122f7565b82525050565b611f17816122f7565b82525050565b6000602082019050611f326000830184611c25565b92915050565b60006020820190508181036000830152611f528184611c34565b905092915050565b60006020820190508181036000830152611f748184611c92565b905092915050565b6000602082019050611f916000830184611cf0565b92915050565b60006020820190508181036000830152611fb18184611cff565b905092915050565b60006020820190508181036000830152611fd281611d38565b9050919050565b60006020820190508181036000830152611ff281611d5b565b9050919050565b6000602082019050818103600083015261201281611d7e565b9050919050565b6000602082019050818103600083015261203281611da1565b9050919050565b6000602082019050818103600083015261205281611dc4565b9050919050565b6000602082019050818103600083015261207281611de7565b9050919050565b6000602082019050818103600083015261209281611e0a565b9050919050565b600060208201905081810360008301526120b281611e2d565b9050919050565b600060208201905081810360008301526120d281611e50565b9050919050565b600060208201905081810360008301526120f281611e73565b9050919050565b6000602082019050818103600083015261211281611e96565b9050919050565b6000602082019050818103600083015261213281611eb9565b9050919050565b6000602082019050818103600083015261215281611edc565b9050919050565b600060208201905061216e6000830184611f0e565b92915050565b6000819050602082019050919050565b6000819050602082019050919050565b600081519050919050565b600081519050919050565b600081519050919050565b6000602082019050919050565b6000602082019050919050565b600082825260208201905092915050565b600082825260208201905092915050565b600082825260208201905092915050565b600061220d826122f7565b9150612218836122f7565b9250827fffffffffffffffffffffffffffffffffffffffffffffffffffffffffffffffff0382111561224d5761224c6123c1565b5b828201905092915050565b6000612263826122f7565b915061226e836122f7565b9250817fffffffffffffffffffffffffffffffffffffffffffffffffffffffffffffffff04831182151516156122a7576122a66123c1565b5b828202905092915050565b60006122bd826122d7565b9050919050565b60008190506122d2826127b2565b919050565b600073ffffffffffffffffffffffffffffffffffffffff82169050919050565b6000819050919050565b600061230c826122c4565b9050919050565b60005b83811015612331578082015181840152602081019050612316565b83811115612340576000848401525b50505050565b6000600282049050600182168061235e57607f821691505b602082108114156123725761237161241f565b5b50919050565b6000612383826122f7565b91507fffffffffffffffffffffffffffffffffffffffffffffffffffffffffffffffff8214156123b6576123b56123c1565b5b600182019050919050565b7f4e487b7100000000000000000000000000000000000000000000000000000000600052601160045260246000fd5b7f4e487b7100000000000000000000000000000000000000000000000000000000600052602160045260246000fd5b7f4e487b7100000000000000000000000000000000000000000000000000000000600052602260045260246000fd5b7f4e487b7100000000000000000000000000000000000000000000000000000000600052603260045260246000fd5b600080fd5b6000601f19601f8301169050919050565b7f4c612074617865206e27612070617320656e636f726520c3a974c3a92061737360008201527f69676ec3a9650000000000000000000000000000000000000000000000000000602082015250565b7f4c612070617274696520612064c3a96ac3a020636f6d6d656e63c3a900000000600082015250565b7f4c2761647265737365206573742064c3a96ac3a02064616e73206c6573206a6f60008201527f7565757273000000000000000000000000000000000000000000000000000000602082015250565b7f4c6120706172746965206e276573742070617320656e636f7265207465726d6960008201527f6ec3a96500000000000000000000000000000000000000000000000000000000602082015250565b7f4f776e61626c653a206e6577206f776e657220697320746865207a65726f206160008201527f6464726573730000000000000000000000000000000000000000000000000000602082015250565b7f496c2066617574206175206d6f696e732064657578206a6f756575727320706f60008201527f75722064c3a96d617272657220756e6520706172746965000000000000000000602082015250565b7f4c6120706172746965206e276573742070617320656e20636f75727300000000600082015250565b7f566f7573206e27c3aa74657320706173206c65206761676e616e740000000000600082015250565b7f4f776e61626c653a2063616c6c6572206973206e6f7420746865206f776e6572600082015250565b7f4c65206e6f6d62726520612064c3a96ac3a020c3a974c3a92070726f706f73c360008201527fa900000000000000000000000000000000000000000000000000000000000000602082015250565b7f4c6120706172746965206e2765737420706173207465726d696ec3a965000000600082015250565b7f566f7573206e27c3aa7465732070617320756e206a6f75657572000000000000600082015250565b7f4c65206e6f6d62726520c3a020646576696e6572206e27612070617320c3a97460008201527fc3a92063686f6973690000000000000000000000000000000000000000000000602082015250565b600381106127c3576127c26123f0565b5b50565b6127cf816122b2565b81146127da57600080fd5b50565b6127e6816122f7565b81146127f157600080fd5b5056fea2646970667358221220609c4c23d0e562d5f366ae472bb976c3c259cb59d4de96191cb122f2d6be264d64736f6c63430008070033",
  "immutableReferences": {},
  "source": "// SPDX-License-Identifier: MIT\npragma solidity 0.8.7;\nimport \"../node_modules/@openzeppelin/contracts/access/Ownable.sol\";\n\ncontract Pendu is Ownable {\n    enum State {\n        GameNotStarted,\n        GameStarted,\n        GameEnded\n    }\n\n    State public CurrentState = State.GameNotStarted;\n\n    uint256 NumberToGuess; // Nombre  deviner\n    uint256 Tax; // Montant  payer pour jouer\n    uint256 Pot; // Montant total investi\n    address Winner; // Adresse du gagnant\n    string Hint; // Indice pour deviner le nombre\n\n    // uint MaxAttempts; // Nombre de tentatives maximum\n    uint256[] ProposedNumbers; // Contient les nombres proposs\n    address[] Players; // Contient les joueurs\n    address[] Played; // Contient les joueurs ayant jous\n\n    mapping(uint256 => bool) MapProposedNumbers; // Les nombres  true ont dj t proposes\n    mapping(address => bool) MapPlayers; // Contient les joueurs de la partie\n    mapping(address => bool) MapPlayed; // Contient les joueurs ayant jous dans la partie\n\n    event NumberProposed(uint256 proposedNumber); // vnement  la proposition d'un nombre\n    event PlayerAdded(address player); // vnement  l'ajout d'un joueur\n    event StateChanged(State state); // vnement au changement d'tat\n    event TaxChanged(uint256 tax); // vnement au changement de la taxe de jeu\n\n    /**\n     * N'autorise que les joueurs\n     */\n    modifier onlyPlayer() {\n        require(MapPlayers[msg.sender], unicode\"Vous n'tes pas un joueur\");\n        _;\n    }\n\n    /**\n     * Affiche l'tat actuel\n     */\n    function showCurrentState() public view returns (State) {\n        return CurrentState;\n    }\n\n    /**\n     * Affiche la taxe pour jouer\n     */\n    function showTax() public view returns (uint256) {\n        return Tax;\n    }\n\n    /**\n     * Affiche le pot\n     */\n    function showPot() public view returns (uint256) {\n        return Pot;\n    }\n\n    /**\n     * Affiche le nombre  deviner\n     */\n    function showNumberToGuess() public view returns (uint256) {\n        require(\n            CurrentState == State.GameEnded,\n            unicode\"La partie n'est pas encore termine\"\n        );\n        return NumberToGuess;\n    }\n\n    /**\n     * Affiche les joueurs\n     */\n    function showPlayers() public view returns (address[] memory) {\n        return Players;\n    }\n\n    /**\n     * Affiche les joueurs ayant jous\n     */\n    function showPlayed() public view returns (address[] memory) {\n        return Played;\n    }\n\n    /**\n     * Affiche les nombres proposs\n     */\n    function showProposedNumbers() public view returns (uint256[] memory) {\n        return ProposedNumbers;\n    }\n\n    /**\n     * Affiche l'indice pour deviner le nombre\n     */\n    function showHint() public view returns (string memory) {\n        return Hint;\n    }\n\n    /**\n     * Affiche le gagnant de la partie\n     */\n    function showWinner() public view returns (address) {\n        require(\n            CurrentState == State.GameEnded,\n            unicode\"La partie n'est pas encore termine\"\n        );\n        return Winner;\n    }\n\n    /**\n     * Applique la tax de jeu\n     */\n    function setTax(uint256 _tax) public onlyOwner {\n        require(\n            CurrentState == State.GameNotStarted,\n            unicode\"La partie a dj commenc\"\n        );\n        Tax = _tax;\n        emit TaxChanged(_tax);\n    }\n\n    /**\n     * Ajoute un joueur\n     */\n    function addToPlayers(address _player) public onlyOwner {\n        require(\n            MapPlayers[_player] == false,\n            unicode\"L'adresse est dj dans les joueurs\"\n        );\n        require(\n            CurrentState == State.GameNotStarted,\n            unicode\"La partie a dj commenc\"\n        );\n        MapPlayers[_player] = true;\n        Players.push(_player);\n        emit PlayerAdded(_player);\n    }\n\n    /**\n     * Indique le nombre  deviner\n     */\n    function setNumberToGuess(uint256 _numberToGuess) public onlyOwner {\n        require(\n            CurrentState == State.GameNotStarted,\n            unicode\"La partie a dj commenc\"\n        );\n        NumberToGuess = _numberToGuess;\n    }\n\n    /**\n     * Dmarre la partie\n     */\n    function startGame() public onlyOwner {\n        require(\n            CurrentState == State.GameNotStarted,\n            unicode\"La partie a dj commenc\"\n        );\n        require(\n            Players.length > 1,\n            unicode\"Il faut au moins deux joueurs pour dmarrer une partie\"\n        );\n        require(Tax > 0, unicode\"La taxe n'a pas encore t assigne\");\n        require(\n            NumberToGuess > 0,\n            unicode\"Le nombre  deviner n'a pas t choisi\"\n        );\n        CurrentState = State.GameStarted;\n        emit StateChanged(CurrentState);\n    }\n\n    /**\n     * Proposition d'un chiffre\n     */\n    function proposeNumber(uint256 proposition) public payable onlyPlayer {\n        require(\n            MapProposedNumbers[proposition] == false,\n            unicode\"Le nombre a dj t propos\"\n        );\n        require(\n            CurrentState == State.GameStarted,\n            unicode\"La partie n'est pas en cours\"\n        );\n        if (proposition == NumberToGuess) {\n            // Victoire\n            CurrentState = State.GameEnded;\n            emit StateChanged(CurrentState);\n            Winner = msg.sender;\n        } else {\n            Pot += msg.value; // La taxe  payer est ajoute au pot\n            Tax *= 2; // La taxe  payer double\n            emit TaxChanged(Tax);\n            \n            if(MapPlayed[msg.sender] == false)\n            {\n                MapPlayed[msg.sender] = true;\n                Played.push(msg.sender);\n            }\n\n            ProposedNumbers.push(proposition);\n            MapProposedNumbers[proposition] = true;\n            emit NumberProposed(proposition);\n            Hint = proposition < NumberToGuess ? \"C'est plus\" : \"C'est moins\"; // Mise  jour de l'indice\n            return;\n        }\n\n        Hint = \"\";\n    }\n\n    /**\n     * Dclenchement de la victoire\n     */\n    function win() public {\n        require(\n            CurrentState == State.GameEnded,\n            unicode\"La partie n'est pas termine\"\n        );\n        require(Winner == msg.sender, unicode\"Vous n'tes pas le gagnant\");\n\n        payable(msg.sender).transfer(Pot);\n        Pot = 0;\n    }\n\n    /**\n     * Rinitialise le jeu\n     */\n    function resetGame() public onlyOwner {\n        require(\n            CurrentState == State.GameEnded,\n            unicode\"La partie n'est pas encore termine\"\n        );\n        CurrentState = State.GameNotStarted;\n        delete NumberToGuess;\n        delete Tax;\n        delete Pot;\n        delete Winner;\n\n        for (uint256 i = 0; i < ProposedNumbers.length; i++) {\n            MapProposedNumbers[ProposedNumbers[i]] = false;\n        }\n\n        for (uint256 i = 0; i < Players.length; i++) {\n            MapPlayers[Players[i]] = false;\n        }\n\n        for (uint256 i = 0; i < Played.length; i++) {\n            MapPlayed[Played[i]] = false;\n        }\n\n        delete ProposedNumbers;\n        delete Players;\n        delete Played;\n\n        // emit les vnements ?\n    }\n}\n",
  "sourcePath": "/home/cyril/Documents/Crypto/dApps/Pendu/contracts/Pendu.sol",
  "compiler": {
    "name": "solc",
    "version": "0.8.7+commit.e28d00a7.Emscripten.clang"
  },
  "schemaVersion": "3.4.3",
  "updatedAt": "2021-10-20T13:06:01.053Z",
  "networkType": "ethereum",
  "devdoc": {
    "kind": "dev",
    "methods": {
      "owner()": {
        "details": "Returns the address of the current owner."
      },
      "renounceOwnership()": {
        "details": "Leaves the contract without owner. It will not be possible to call `onlyOwner` functions anymore. Can only be called by the current owner. NOTE: Renouncing ownership will leave the contract without an owner, thereby removing any functionality that is only available to the owner."
      },
      "transferOwnership(address)": {
        "details": "Transfers ownership of the contract to a new account (`newOwner`). Can only be called by the current owner."
      }
    },
    "version": 1
  },
  "userdoc": {
    "kind": "user",
    "methods": {
      "addToPlayers(address)": {
        "notice": "Ajoute un joueur"
      },
      "proposeNumber(uint256)": {
        "notice": "Proposition d'un chiffre"
      },
      "resetGame()": {
        "notice": "Rinitialise le jeu"
      },
      "setNumberToGuess(uint256)": {
        "notice": "Indique le nombre  deviner"
      },
      "setTax(uint256)": {
        "notice": "Applique la tax de jeu"
      },
      "showCurrentState()": {
        "notice": "Affiche l'tat actuel"
      },
      "showHint()": {
        "notice": "Affiche l'indice pour deviner le nombre"
      },
      "showNumberToGuess()": {
        "notice": "Affiche le nombre  deviner"
      },
      "showPlayed()": {
        "notice": "Affiche les joueurs ayant jous"
      },
      "showPlayers()": {
        "notice": "Affiche les joueurs"
      },
      "showPot()": {
        "notice": "Affiche le pot"
      },
      "showProposedNumbers()": {
        "notice": "Affiche les nombres proposs"
      },
      "showTax()": {
        "notice": "Affiche la taxe pour jouer"
      },
      "showWinner()": {
        "notice": "Affiche le gagnant de la partie"
      },
      "startGame()": {
        "notice": "Dmarre la partie"
      },
      "win()": {
        "notice": "Dclenchement de la victoire"
      }
    },
    "version": 1
  }
}